:020000040800F2
:1000000000500020890600081105000817050008A7
:100010001D05000823050008290500080000000050
:100020000000000000000000000000002F05000894
:100030003B050008000000004705000853050008C4
:10004000D1060008D1060008D1060008D106000834
:10005000D1060008D1060008D1060008D106000824
:10006000D1060008D1060008D1060008D106000814
:10007000D1060008D1060008D1060008D106000804
:10008000D1060008D1060008D1060008D1060008F4
:10009000D1060008D1060008D1060008D1060008E4
:1000A000D1060008D1060008D1060008D1060008D4
:1000B000D1060008D1060008D1060008D1060008C4
:1000C000D1060008D1060008D1060008D1060008B4
:1000D000D106000861050008C5030008D106000824
:1000E000D1060008D1060008D10600080000000073
:1000F0000000000000000000000000000000000000
:0C01000000000000000000005FF808F1A3
:10010C0010B5054C237833B9044B13B10448AFF345
:10011C0000800123237010BD70000020000000003F
:10012C00A42C000808B5034B1BB103490348AFF3DB
:10013C00008008BD0000000074000020A42C000802
:10014C0080B483B000AF78604FF06043D3F8803E4A
:10015C0003F00103002B13D04FF06043D3F8003EA3
:10016C0003F00103002B0BD000E000BF4FF0604305
:10017C001B68002BF9D04FF060437A68D2B21A702A
:10018C007B6818460C37BD4680BC704780B586B07E
:10019C0000AFF860B9607A6000237B6109E0BB684E
:1001AC005A1CBA601B781846FFF7CAFF7B690133EB
:1001BC007B617A697B689A42F1DB7B681846183759
:1001CC00BD4680BD80B500AF00F07EFA00F02CF883
:1001DC0000F09AF800F06EF84FF47A730A220D4989
:1001EC000D4801F0E8FA4FF4FA7000F0CFFA4FF432
:1001FC0000510A4800F05FFE4FF40051074800F030
:10020C002BFE03461A46064B1A60064802F0BCF851
:10021C00E2E700BFD00000208C000020001001405D
:10022C00DC000020BC2C000880B590B000AF07F1BA
:10023C00180328220021184602F030F83B1D00223A
:10024C001A605A609A60DA601A610123BB614FF43C
:10025C008033FB6100233B620123BB6202237B637F
:10026C004FF48033BB634FF4E013FB6307F11803C7
:10027C00184600F039FE0346002B01D000F0B6F80A
:10028C000F237B600223BB600023FB604FF4806371
:10029C003B6100237B613B1D0221184601F0A6F84F
:1002AC000346002B01D000F0A1F800BF4037BD463B
:1002BC0080BD000080B500AF114B124A1A60104B84
:1002CC004FF4E1325A600E4B00229A600C4B002224
:1002DC00DA600B4B00221A61094B0C225A61084B55
:1002EC0000229A61064B0022DA61054801F016FAE9
:1002FC000346002B01D000F079F800BF80BD00BF91
:10030C008C0000200038014080B588B000AF07F1A8
:10031C00100300221A605A609A60DA60244B9B69C1
:10032C00234A43F010039361214B9B6903F01003A4
:10033C00FB60FB681E4B9B691D4A43F020039361D5
:10034C001B4B9B6903F02003BB60BB68184B9B697C
:10035C00174A43F004039361154B9B6903F00403A4
:10036C007B607B68124B9B69114A43F008039361D5
:10037C000F4B9B6903F008033B603B6800224FF472
:10038C0000510C4800F07FFD4FF400533B610123FA
:10039C007B610223BB610223FB6107F11003194649
:1003AC00044800F0D5FB00BF2037BD4680BD00BF20
:1003BC00001002400010014080B500AF084B1B68D4
:1003CC0003F02003002B09D001220649064801F056
:1003DC00D8FA01220349044801F08FFA00BF80BD0E
:1003EC0000440040D00000208C00002080B400AFFE
:1003FC0072B600BFFEE7000080B485B000AF154BAD
:10040C009B69144A43F001039361124B9B6903F0FF
:10041C000103BB60BB680F4BDB690E4A43F0805392
:10042C00D3610C4BDB6903F080537B607B680A4B18
:10043C005B68FB60FB6823F0E063FB60FB6843F0E8
:10044C000073FB60044AFB68536000BF1437BD4661
:10045C0080BC7047001002400000014080B588B09D
:10046C0000AF786007F1100300221A605A609A609E
:10047C00DA607B681B68204A934239D11F4B9B6919
:10048C001E4A43F4804393611C4B9B6903F48043E5
:10049C00FB60FB68194B9B69184A43F0040393619A
:1004AC00164B9B6903F00403BB60BB684FF40073ED
:1004BC003B6102237B610323FB6107F110031946A7
:1004CC000F4800F045FB4FF480633B6100237B61D8
:1004DC000023BB6107F110031946094800F038FBF3
:1004EC0000220021252000F04CFA252000F065FAAE
:1004FC0000BF2037BD4680BD0038014000100240CF
:10050C000008014080B400AFFEE780B400AFFEE706
:10051C0080B400AFFEE780B400AFFEE780B400AF5C
:10052C00FEE780B400AF00BFBD4680BC704780B40E
:10053C0000AF00BFBD4680BC704780B400AF00BFA9
:10054C00BD4680BC704780B500AF00F003F900BF1A
:10055C0080BD000080B500AF024801F043FA00BF37
:10056C0080BD00BF8C00002080B586B000AFF86065
:10057C00B9607A6000237B610AE0AFF3008001462A
:10058C00BB685A1CBA60CAB21A707B6901337B61B2
:10059C007A697B689A42F0DB7B6818461837BD464F
:1005AC0080BD80B483B000AF78604FF0FF33184645
:1005BC000C37BD4680BC704780B483B000AF786008
:1005CC0039603B684FF400525A60002318460C37D0
:1005DC00BD4680BC704780B483B000AF7860012307
:1005EC0018460C37BD4680BC704780B485B000AF50
:1005FC00F860B9607A60002318461437BD4680BC99
:10060C007047000080B586B000AF7860144A154B77
:10061C00D31A7B617B693B61134B1B68002B02D1A6
:10062C00114B124A1A60104B1A687B6813443A69D2
:10063C009A4207D201F008FE03460C221A604FF0D2
:10064C00FF3309E0084B1B68FB60074B1A687B689B
:10065C001344054A1360FB6818461837BD4680BD25
:10066C000050002000040000E0000020F8000020F2
:10067C0080B400AF00BFBD4680BC70470C480D492C
:10068C000D4A002302E0D458C4500433C4188C42E1
:10069C00F9D30A4A0A4C002301E013600432A24247
:1006AC00FBD3FFF7E5FF01F0D5FDFFF78BFD70479E
:1006BC000000002070000020582D00087000002061
:1006CC00F8000020FEE7000080B500AF084B1B6867
:1006DC00074A43F010031360032000F047F90F2082
:1006EC0000F008F8FFF788FE0023184680BD00BF15
:1006FC000020024080B582B000AF7860124B1A68BF
:10070C00124B1B7819464FF47A73B3FBF1F3B2FB1F
:10071C00F3F3184600F05FF90346002B01D00123D8
:10072C000EE07B680F2B0AD8002279684FF0FF305F
:10073C0000F027F9064A7B681360002300E00123D0
:10074C0018460837BD4680BD000000200800002078
:10075C000400002080B400AF054B1B781A46054BF3
:10076C001B681344034A136000BFBD4680BC70472E
:10077C0008000020E400002080B400AF024B1B688E
:10078C001846BD4680BC7047E400002080B584B09C
:10079C0000AF7860FFF7F0FFB8607B68FB60FB6828
:1007AC00B3F1FF3F05D00A4B1B781A46FB68134484
:1007BC00FB6000BFFFF7E0FF0246BB68D31AFA6884
:1007CC009A42F7D800BF00BF1037BD4680BD00BFAE
:1007DC000800002080B485B000AF78607B6803F01F
:1007EC000703FB600C4BDB68BB60BA684FF6FF037A
:1007FC001340BB60FB681A02BB68134343F0BF6332
:10080C0043F40033BB60044ABB68D36000BF1437A9
:10081C00BD4680BC704700BF00ED00E080B400AF67
:10082C00044BDB681B0A03F007031846BD4680BC6B
:10083C00704700BF00ED00E080B483B000AF03460A
:10084C00FB7197F90730002B0BDBFB7903F01F02D0
:10085C00064997F907305B09012000FA02F241F8CA
:10086C00232000BF0C37BD4680BC704700E100E080
:10087C0080B483B000AF03463960FB7197F9073041
:10088C00002B0ADB3B68DAB20C4997F907301201EE
:10089C00D2B20B4483F800230AE03B68DAB2084971
:1008AC00FB7903F00F03043B1201D2B20B441A760E
:1008BC0000BF0C37BD4680BC704700BF00E100E0B4
:1008CC0000ED00E080B489B000AFF860B9607A60E8
:1008DC00FB6803F00703FB61FB69C3F10703042BFF
:1008EC0028BF0423BB61FB690433062B02D9FB69C7
:1008FC00033B00E000237B614FF0FF32BB6902FA3F
:10090C0003F3DA43BB681A407B699A404FF0FF311E
:10091C007B6901FA03F3D9437B680B4013431846F8
:10092C002437BD4680BC704780B582B000AF78607C
:10093C007B68013BB3F1807F01D301230FE00A4AAE
:10094C007B68013B53600F214FF0FF30FFF790FFA6
:10095C00054B00229A60044B07221A6000231846AC
:10096C000837BD4680BD00BF10E000E080B582B006
:10097C0000AF78607868FFF72DFF00BF0837BD46E1
:10098C0080BD80B586B000AF0346B9607A60FB735A
:10099C0000237B61FFF742FF78617A68B968786958
:1009AC00FFF790FF024697F90F3011461846FFF7F4
:1009BC005FFF00BF1837BD4680BD80B582B000AF69
:1009CC000346FB7197F907301846FFF735FF00BF58
:1009DC000837BD4680BD80B582B000AF78607868BE
:1009EC00FFF7A2FF034618460837BD4680BD80B40A
:1009FC0085B000AF78600023FB737B6893F82130DF
:100A0C00022B08D07B6804229A637B68002283F84F
:100A1C002020012320E07B681B681A687B681B6818
:100A2C0022F00E021A607B681B681A687B681B68D0
:100A3C0022F001021A607B681A6C7B68DB6B012167
:100A4C0001FA02F25A607B68012283F821207B684C
:100A5C00002283F82020FB7B18461437BD4680BC4F
:100A6C007047000080B584B000AF78600023FB7342
:100A7C007B6893F82130022B05D07B6804229A63A3
:100A8C000123FB7351E07B681B681A687B681B6849
:100A9C0022F00E021A607B681B681A687B681B6860
:100AAC0022F001021A607B681B68224A934229D00B
:100ABC007B681B68204A934222D07B681B681F4AC4
:100ACC0093421AD07B681B681D4A934212D07B68F4
:100ADC001B681C4A93420AD07B681B681A4A9342D3
:100AEC0002D14FF480130EE04FF080730BE04FF403
:100AFC00803308E04FF4805305E04FF4807302E03C
:100B0C00102300E00123114A53607B68012283F813
:100B1C0021207B68002283F820207B685B6B002BF4
:100B2C0003D07B685B6B78689847FB7B1846103763
:100B3C00BD4680BD080002401C000240300002404F
:100B4C0044000240580002406C0002400000024089
:100B5C0080B48BB000AF7860396000237B620023D7
:100B6C003B6269E101227B6A02FA03F3FB613B6899
:100B7C001B68FA691340BB61BA69FB699A4240F081
:100B8C0058813B685B689A4A93425ED0984A93427C
:100B9C0075D8984A934258D0964A93426FD8964A41
:100BAC00934252D0944A934269D8944A93424CD07F
:100BBC00924A934263D8924A934246D0904A9342C7
:100BCC005DD8122B2AD8122B59D801A252F823F037
:100BDC00570C0008310C0008430C0008850C000869
:100BEC008B0C00088B0C00088B0C00088B0C00087D
:100BFC008B0C00088B0C00088B0C00088B0C00086D
:100C0C008B0C00088B0C00088B0C00088B0C00085C
:100C1C008B0C0008390C00084D0C0008794A9342E3
:100C2C0013D02CE03B68DB683B6229E03B68DB6857
:100C3C0004333B6224E03B68DB6808333B621FE013
:100C4C003B68DB680C333B621AE03B689B68002B0B
:100C5C0002D104233B6213E03B689B68012B05D156
:100C6C0008233B627B68FA691A6109E008233B623E
:100C7C007B68FA695A6103E000233B6200E000BF25
:100C8C00BB69FF2B01D87B6801E07B6804337B6177
:100C9C00BB69FF2B02D87B6A9B0002E07B6A083B96
:100CAC009B003B617B691A680F213B6901FA03F3D6
:100CBC00DB431A40396A3B6901FA03F31A437B6937
:100CCC001A603B685B6803F08053002B00F0B18026
:100CDC004D4B9B694C4A43F0010393614A4B9B6912
:100CEC0003F00103BB60BB68484A7B6A9B08023374
:100CFC0052F82330FB607B6A03F003039B000F2246
:100D0C0002FA03F3DB43FA681340FB607B68404A4A
:100D1C00934213D07B683F4A93420DD07B683E4A86
:100D2C00934207D07B683D4A934201D1032306E0EE
:100D3C00042304E0022302E0012300E000237A6A8A
:100D4C0002F0030292009340FA681343FB602F49B0
:100D5C007B6A9B080233FA6841F823203B685B6886
:100D6C0003F48033002B06D02D4B1A682C49BB6939
:100D7C0013430B6006E02A4B1A68BB69DB43284916
:100D8C0013400B603B685B6803F40033002B06D008
:100D9C00234B5A682249BB6913434B6006E0204B36
:100DAC005A68BB69DB431E4913404B603B685B6868
:100DBC0003F48013002B06D0194B9A681849BB69B1
:100DCC0013438B6006E0164B9A68BB69DB431449EE
:100DDC0013408B603B685B6803F40013002B21D03D
:100DEC000F4BDA680E49BB691343CB6021E000BF9F
:100DFC000000321000003110000022100000211001
:100E0C000000121000001110001002400000014000
:100E1C0000080140000C014000100140001401408A
:100E2C00000401400B4BDA68BB69DB4309491340F2
:100E3C00CB607B6A01337B623B681A687B6A22FA5F
:100E4C0003F3002B7FF48EAE00BF00BF2C37BD46E2
:100E5C0080BC70470004014080B485B000AF78605E
:100E6C000B467B807B689A687B881340002B02D0F2
:100E7C000123FB7301E00023FB73FB7B1846143743
:100E8C00BD4680BC704780B483B000AF78600B4621
:100E9C007B8013467B707B78002B03D07A887B6831
:100EAC001A6103E07B881A047B681A6100BF0C3757
:100EBC00BD4680BC704780B485B000AF78600B46EF
:100ECC007B807B68DB68FB607A88FB6813401A04C4
:100EDC00FB68D9437B880B401A437B681A6100BFBF
:100EEC001437BD4680BC704780B586B000AF7860C3
:100EFC007B68002B01D1012372E27B681B6803F035
:100F0C000103002B00F08780924B5B6803F00C030D
:100F1C00042B0CD08F4B5B6803F00C03082B12D105
:100F2C008C4B5B6803F48033B3F5803F0BD1894B5A
:100F3C001B6803F40033002B6CD07B685B68002BC0
:100F4C0068D101234CE27B685B68B3F5803F06D126
:100F5C00804B1B687F4A43F4803313602EE07B6820
:100F6C005B68002B0CD17B4B1B687A4A23F48033D3
:100F7C001360784B1B68774A23F4802313601DE0C1
:100F8C007B685B68B3F5A02F0CD1724B1B68714A60
:100F9C0043F4802313606F4B1B686E4A43F4803319
:100FAC0013600BE06B4B1B686A4A23F480331360AD
:100FBC00684B1B68674A23F4802313607B685B686B
:100FCC00002B13D0FFF7D8FB386108E0FFF7D4FBF8
:100FDC0002463B69D31A642B01D9032300E25D4B13
:100FEC001B6803F40033002BF0D014E0FFF7C4FBB4
:100FFC00386108E0FFF7C0FB02463B69D31A642B4B
:10100C0001D90323ECE1534B1B6803F40033002B91
:10101C00F0D100E000BF7B681B6803F00203002BDB
:10102C0063D04C4B5B6803F00C03002B0BD0494B8B
:10103C005B6803F00C03082B1CD1464B5B6803F474
:10104C008033002B16D1434B1B6803F00203002B9B
:10105C0005D07B681B69012B01D00123C0E13D4BFE
:10106C001B6823F0F8027B685B69DB00394913438A
:10107C000B603AE07B681B69002B20D0364B0122B9
:10108C001A60FFF779FB386108E0FFF775FB024641
:10109C003B69D31A022B01D90323A1E12D4B1B6809
:1010AC0003F00203002BF0D02A4B1B6823F0F8024C
:1010BC007B685B69DB00274913430B6015E0264B0B
:1010CC0000221A60FFF758FB386108E0FFF754FB69
:1010DC0002463B69D31A022B01D9032380E11D4B35
:1010EC001B6803F00203002BF0D17B681B6803F034
:1010FC000803002B3AD07B689B69002B19D0174B47
:10110C0001221A60FFF738FB386108E0FFF734FB67
:10111C0002463B69D31A022B01D9032360E10D4B24
:10112C005B6A03F00203002BF0D0012000F0D8FA28
:10113C001CE00A4B00221A60FFF71EFB38610FE01F
:10114C00FFF71AFB02463B69D31A022B08D903237B
:10115C0046E100BF001002400000424280044242BF
:10116C00924B5B6A03F00203002BE9D17B681B688E
:10117C0003F00403002B00F0A6800023FB758B4BBF
:10118C00DB6903F08053002B0DD1884BDB69874A58
:10119C0043F08053D361854BDB6903F08053BB6014
:1011AC00BB680123FB75824B1B6803F48073002B17
:1011BC0018D17F4B1B687E4A43F480731360FFF792
:1011CC00DBFA386108E0FFF7D7FA02463B69D31A1D
:1011DC00642B01D9032303E1754B1B6803F4807363
:1011EC00002BF0D07B68DB68012B06D16F4B1B6AA0
:1011FC006E4A43F0010313622DE07B68DB68002B21
:10120C000CD16A4B1B6A694A23F001031362674BCA
:10121C001B6A664A23F0040313621CE07B68DB68DC
:10122C00052B0CD1614B1B6A604A43F0040313621B
:10123C005E4B1B6A5D4A43F0010313620BE05B4B90
:10124C001B6A5A4A23F001031362584B1B6A574A14
:10125C0023F0040313627B68DB68002B15D0FFF7C7
:10126C008BFA38610AE0FFF787FA02463B69D31A1A
:10127C0041F28832934201D90323B1E04B4B1B6AF4
:10128C0003F00203002BEED014E0FFF775FA38617F
:10129C000AE0FFF771FA02463B69D31A41F2883231
:1012AC00934201D903239BE0404B1B6A03F00203DA
:1012BC00002BEED1FB7D012B05D13C4BDB693B4A6E
:1012CC0023F08053D3617B68DB69002B00F08780AF
:1012DC00364B5B6803F00C03082B61D07B68DB6931
:1012EC00022B46D1334B00221A60FFF745FA3861C6
:1012FC0008E0FFF741FA02463B69D31A022B01D9E9
:10130C0003236DE0294B1B6803F00073002BF0D115
:10131C007B681B6AB3F5803F08D1244B5B6823F4D0
:10132C0000327B689B68214913434B601F4B5B6801
:10133C0023F474127B68196A7B685B6A0B431B4944
:10134C0013434B601B4B01221A60FFF715FA3861EF
:10135C0008E0FFF711FA02463B69D31A022B01D9B8
:10136C0003233DE0114B1B6803F00073002BF0D0FE
:10137C0035E0104B00221A60FFF7FEF9386108E0E7
:10138C00FFF7FAF902463B69D31A022B01D9032362
:10139C0026E0064B1B6803F00073002BF0D11EE017
:1013AC007B68DB69012B07D1012319E00010024097
:1013BC0000700040600042420B4B5B68FB60FB68B6
:1013CC0003F480327B681B6A9A4206D1FB6803F4F3
:1013DC0070127B685B6A9A4201D0012300E0002303
:1013EC0018461837BD4680BD0010024080B584B049
:1013FC0000AF786039607B68002B01D10123D0E00D
:10140C006A4B1B6803F007033A689A4210D9674B82
:10141C001B6823F0070265493B6813430B60634B61
:10142C001B6803F007033A689A4201D00123B8E025
:10143C007B681B6803F00203002B20D07B681B68C1
:10144C0003F00403002B05D0594B5B68584A43F456
:10145C00E06353607B681B6803F00803002B05D026
:10146C00534B5B68524A43F460535360504B5B6878
:10147C0023F0F0027B689B684D4913434B607B68FB
:10148C001B6803F00103002B40D07B685B68012BC9
:10149C0007D1474B1B6803F40033002B15D10123F4
:1014AC007FE07B685B68022B07D1414B1B6803F024
:1014BC000073002B09D1012373E03D4B1B6803F033
:1014CC000203002B01D101236BE0394B5B6823F045
:1014DC0003027B685B68364913434B60FFF74CF99A
:1014EC00F8600AE0FFF748F90246FB68D31A41F2AC
:1014FC008832934201D9032353E02D4B5B6803F0F0
:10150C000C027B685B689B009A42EBD1274B1B68F3
:10151C0003F007033A689A4210D2244B1B6823F05D
:10152C00070222493B6813430B60204B1B6803F0F6
:10153C0007033A689A4201D0012332E07B681B68AA
:10154C0003F00403002B08D0194B5B6823F4E06212
:10155C007B68DB68164913434B607B681B6803F0A0
:10156C000803002B09D0124B5B6823F460527B6894
:10157C001B69DB000E4913434B6000F021F8024657
:10158C000B4B5B681B0903F00F030A49CB5C22FA77
:10159C0003F3094A1360094B1B681846FFF7AAF8B6
:1015AC00002318461037BD4680BD00BF0020024006
:1015BC0000100240D42C0008000000200400002081
:1015CC0090B48AB000AF294B3C1D0FCB84E80F00C0
:1015DC0040F201233B800023FB610023BB6100230D
:1015EC007B6200237B6100233B62214B5B68FB61C8
:1015FC00FB6903F00C03042B02D0082B03D02BE067
:10160C001C4B3B622BE0FB699B0C03F00F03283354
:10161C003B4413F8243C7B61FB6903F48033002BBF
:10162C0012D0134B5B685B0C03F0010328333B4473
:10163C0013F8283CBB617B690E4A03FB02F2BB69C1
:10164C00B2FBF3F37B6204E07B690B4A02FB03F30E
:10165C007B627B6A3B6202E0064B3B6200BF3B6AEB
:10166C0018462837BD4690BC704700BFC42C0008F4
:10167C000010024000127A0000093D0080B400AF57
:10168C00024B1B681846BD4680BC7047000000200A
:10169C0080B500AFFFF7F2FF0246054B5B681B0AF3
:1016AC0003F007030349CB5C22FA03F3184680BD11
:1016BC0000100240E42C000880B500AFFFF7DEFFFD
:1016CC000246054B5B68DB0A03F007030349CB5C5E
:1016DC0022FA03F3184680BD00100240E42C0008E7
:1016EC0080B485B000AF78600A4B1B680A4AA2FB35
:1016FC0003235B0A7A6802FB03F3FB6000BFFB6801
:10170C005A1EFA60002BF9D100BF00BF1437BD463A
:10171C0080BC704700000020D34D621080B582B0B1
:10172C0000AF78607B68002B01D101233FE07B6820
:10173C0093F83D30DBB2002B06D17B68002283F896
:10174C003C207868FEF78AFE7B68242283F83D20D3
:10175C007B681B68DA687B681B6822F40052DA60CD
:10176C00786800F0E3FC7B681B681A697B681B686F
:10177C0022F490421A617B681B685A697B681B686B
:10178C0022F02A025A617B681B68DA687B681B6846
:10179C0042F40052DA607B6800221A647B682022D3
:1017AC0083F83D207B68202283F83E2000231846D6
:1017BC000837BD4680BD80B58AB002AFF860B9600D
:1017CC003B601346FB8000237B61FB6893F83E3043
:1017DC00DBB2202B40F08C80BB68002B02D0FB8846
:1017EC00002B01D1012384E0FB6893F83C30012BE2
:1017FC0001D102237DE0FB68012283F83C20FB68C9
:10180C0000221A64FB68222283F83E20FB68002227
:10181C001A63FEF7B1FF7861FB68FA889A85FB685A
:10182C00FA88DA85FB689B68B3F5805F08D1FB68A2
:10183C001B69002B04D10023FB61BB68BB6103E077
:10184C00BB68FB610023BB61FB68002283F83C2072
:10185C0043E03B6800937B6900222021F86800F08C
:10186C0091FA0346002B01D0032342E0FB69002BC5
:10187C000CD1FB681B685B689BB2C3F308039AB27C
:10188C00BB691A80BB690233BB611FE0FB689B68B4
:10189C00B3F5805F07D0FB689B68002B0AD1FB680F
:1018AC001B69002B06D1FB681B685B68DAB2FB690D
:1018BC001A7008E0FB681B685B68DBB203F07F03FF
:1018CC00DAB2FB691A70FB690133FB61FB68DB8DD3
:1018DC009BB2013B9AB2FB68DA85FB68DB8D9BB24D
:1018EC00002BB6D1FB68202283F83E20002300E0B9
:1018FC00022318462037BD4680BD80B485B000AFAA
:10190C00F860B9601346FB80FB6893F83D30DBB29E
:10191C00202B30D1BB68002B02D0FB88002B01D1CF
:10192C00012329E0FB6893F83C30012B01D1022301
:10193C0022E0FB68012283F83C20FB68BA681A623B
:10194C00FB68FA889A84FB68FA88DA84FB680022C0
:10195C001A64FB68212283F83D20FB68002283F87F
:10196C003C20FB681B68DA68FB681B6842F080024D
:10197C00DA60002300E0022318461437BD4680BC11
:10198C00704780B584B000AFF860B9601346FB8037
:10199C00FB6893F83E30DBB2202B1DD1BB68002BCB
:1019AC0002D0FB88002B01D1012316E0FB6893F8D1
:1019BC003C30012B01D102230FE0FB68012283F89C
:1019CC003C20FB6800221A63FB881A46B968F86849
:1019DC0000F022FA034600E0022318461037BD46F9
:1019EC0080BD000080B58AB000AF78607B681B6852
:1019FC001B687B627B681B68DB683B627B681B68CF
:101A0C005B69FB610023BB6100237B617B6A03F094
:101A1C000F03BB61BB69002B0DD17B6A03F0200364
:101A2C00002B08D03B6A03F02003002B03D078680E
:101A3C0000F0D2FA7BE1BB69002B00F0B180FB69AE
:101A4C0003F00103002B05D13B6A03F49073002BC8
:101A5C0000F0A6807B6A03F00103002B0AD03B6ADE
:101A6C0003F48073002B05D07B681B6C43F00102E0
:101A7C007B681A647B6A03F00403002B0AD0FB69B1
:101A8C0003F00103002B05D07B681B6C43F00202B2
:101A9C007B681A647B6A03F00203002B0AD0FB6993
:101AAC0003F00103002B05D07B681B6C43F0040290
:101ABC007B681A647B6A03F00803002B0FD03B6A27
:101ACC0003F02003002B04D1FB6903F00103002B6E
:101ADC0005D07B681B6C43F008027B681A647B683A
:101AEC001B6C002B00F01E817B6A03F02003002B83
:101AFC0007D03B6A03F02003002B02D0786800F07B
:101B0C006BFA7B681B685B6903F04003002B14BF06
:101B1C0001230023DBB27B617B681B6C03F00803A1
:101B2C00002B02D17B69002B31D0786800F0ADF925
:101B3C007B681B685B6903F04003002B23D07B6838
:101B4C001B685A697B681B6822F040025A617B68EB
:101B5C009B6B002B13D07B689B6B764A5A637B681C
:101B6C009B6B1846FEF77EFF0346002B16D07B6856
:101B7C009B6B5B6B7A68926B104698470EE07868AB
:101B8C0000F0ECF80AE0786800F0E8F806E0786815
:101B9C0000F0E4F87B6800221A64C3E000BFC1E0E7
:101BAC007B681B6B012B40F0A1807B6A03F0100358
:101BBC00002B00F09B803B6A03F01003002B00F01D
:101BCC0095800023FB607B681B681B68FB607B684F
:101BDC001B685B68FB60FB687B681B685B6903F0D8
:101BEC004003002B4ED07B689B6B1B685B683B8271
:101BFC003B8A002B00F098807B689B8D3A8A9A4236
:101C0C0080F092807B683A8ADA857B689B6B9B6953
:101C1C00202B2BD07B681B68DA687B681B6822F44E
:101C2C008072DA607B681B685A697B681B6822F0DB
:101C3C0001025A617B681B685A697B681B6822F039
:101C4C0040025A617B68202283F83E207B68002288
:101C5C001A637B681B68DA687B681B6822F01002C9
:101C6C00DA607B689B6B1846FEF7C1FE7B689A8D29
:101C7C007B68DB8D9BB2D31A9BB21946786800F057
:101C8C0076F851E07B689A8D7B68DB8D9BB2D31A1A
:101C9C007B827B68DB8D9BB2002B47D07B8A002B31
:101CAC0044D07B681B68DA687B681B6822F49072EE
:101CBC00DA607B681B685A697B681B6822F001023A
:101CCC005A617B68202283F83E207B6800221A63CD
:101CDC007B681B68DA687B681B6822F01002DA608C
:101CEC007B8A1946786800F042F81FE07B6A03F0A3
:101CFC008003002B08D03B6A03F08003002B03D039
:101D0C00786800F002F912E07B6A03F04003002BC4
:101D1C000DD03B6A03F04003002B08D0786800F02C
:101D2C0043F904E000BF02E000BF00E000BF283729
:101D3C00BD4680BDEF1E000880B483B000AF786054
:101D4C0000BF0C37BD4680BC704780B483B000AF79
:101D5C00786000BF0C37BD4680BC704780B483B040
:101D6C0000AF786000BF0C37BD4680BC704780B4B4
:101D7C0083B000AF78600B467B8000BF0C37BD464C
:101D8C0080BC704780B584B000AFF860B9603B6030
:101D9C001346FB712CE0BB69B3F1FF3F28D0BB6944
:101DAC00002B07D0FEF7E8FC02463B68D31ABA6951
:101DBC009A421DD2FB681B68DA68FB681B6822F428
:101DCC00D072DA60FB681B685A69FB681B6822F0EA
:101DDC0001025A61FB68202283F83D20FB68202217
:101DEC0083F83E20FB68002283F83C2003230FE09D
:101DFC00FB681B681A68BB681340BA689A420CBF30
:101E0C0001230023DBB21A46FB799A42C3D000238C
:101E1C0018461037BD4680BD80B485B000AFF86061
:101E2C00B9601346FB80FB68BA689A62FB68FA8853
:101E3C009A85FB68FA88DA85FB6800221A64FB68CD
:101E4C00222283F83E20FB68002283F83C20FB68AA
:101E5C001B68DA68FB681B6842F48072DA60FB6806
:101E6C001B685A69FB681B6842F001025A61FB68E7
:101E7C001B68DA68FB681B6842F02002DA600023FA
:101E8C0018461437BD4680BC704780B483B000AF91
:101E9C0078607B681B68DA687B681B6822F4907238
:101EAC00DA607B681B685A697B681B6822F0010248
:101EBC005A617B681B6B012B07D17B681B68DA6846
:101ECC007B681B6822F01002DA607B68202283F8A2
:101EDC003E207B6800221A6300BF0C37BD4680BCD5
:101EEC00704780B584B000AF78607B685B6AFB603C
:101EFC00FB680022DA85FB680022DA84F868FFF7B9
:101F0C002DFF00BF1037BD4680BD80B485B000AF3B
:101F1C0078607B6893F83D30DBB2212B3ED17B6837
:101F2C009B68B3F5805F14D17B681B69002B10D1C3
:101F3C007B681B6AFB60FB681B881A467B681B6806
:101F4C00C2F308025A607B681B6A9A1C7B681A628F
:101F5C0008E07B681B6A591C7A6811621A787B68E6
:101F6C001B685A607B68DB8C9BB2013B9BB27A6826
:101F7C001946D184002B0FD17B681B68DA687B680B
:101F8C001B6822F08002DA607B681B68DA687B6869
:101F9C001B6842F04002DA60002300E0022318467E
:101FAC001437BD4680BC704780B582B000AF7860F6
:101FBC007B681B68DA687B681B6822F04002DA6079
:101FCC007B68202283F83D207868FFF7B5FE00235C
:101FDC0018460837BD4680BD80B586B000AF786026
:101FEC007B6893F83E30DBB2222B40F099807B6803
:101FFC009B68B3F5805F17D17B681B69002B13D1ED
:10200C0000237B617B689B6A3B617B681B685B6818
:10201C009BB2C3F308039AB23B691A807B689B6A34
:10202C009A1C7B689A6226E07B689B6A7B61002322
:10203C003B617B689B68B3F5805F07D07B689B68CE
:10204C00002B0AD17B681B69002B06D17B681B68AF
:10205C005B68DAB27B691A7008E07B681B685B68A6
:10206C00DBB203F07F03DAB27B691A707B689B6A80
:10207C005A1C7B689A627B68DB8D9BB2013B9BB2DE
:10208C007A681946D185002B48D17B681B68DA68C1
:10209C007B681B6822F02002DA607B681B68DA68B8
:1020AC007B681B6822F48072DA607B681B685A6953
:1020BC007B681B6822F001025A617B68202283F83E
:1020CC003E207B681B6B012B23D17B6800221A639B
:1020DC007B681B68DA687B681B6822F01002DA6088
:1020EC007B681B681B6803F01003102B0AD10023BC
:1020FC00FB607B681B681B68FB607B681B685B680C
:10210C00FB60FB687B689B8D19467868FFF72FFE98
:10211C0002E07868FFF719FE002302E0002300E0DC
:10212C00022318461837BD4680BD000080B584B028
:10213C0000AF78607B681B681B6923F440517B6897
:10214C00DA687B681B680A431A617B689A687B684B
:10215C001B691A437B685B691343BB607B681B6814
:10216C00DB6823F4B05323F00C037A681268B96867
:10217C000B43D3607B681B685B6923F440717B68FD
:10218C009A697B681B680A435A617B681B682C4AF6
:10219C00934203D1FFF790FAF86002E0FFF778FA68
:1021AC00F860FA6813469B0013449A001A447B6843
:1021BC005B689B00B2FBF3F3224AA2FB03235B098F
:1021CC001901FA6813469B0013449A001A447B6861
:1021DC005B689B00B2FBF3F21A4BA3FB02035B0997
:1021EC00642000FB03F3D31A1B013233154AA2FB04
:1021FC0003235B0903F0F0031944FA6813469B00B0
:10220C0013449A001A447B685B689B00B2FBF3F2A0
:10221C000C4BA3FB02035B09642000FB03F3D31AF2
:10222C001B013233074AA2FB03235B0903F00F02A5
:10223C007B681B680A449A6000BF1037BD4680BD9E
:10224C00003801401F85EB51014B1868704700BFE7
:10225C000C00002070B500260C4D0D4C641BA41016
:10226C00A64209D100F018FD00260A4D0A4C641B49
:10227C00A410A64205D170BD55F8043B9847013611
:10228C00EEE755F8043B98470136F2E7502D00086D
:10229C00502D0008502D0008542D00080346024410
:1022AC00934200D1704703F8011BF9E770B50E4655
:1022BC00054618B183690BB900F044FAAB69AC68F8
:1022CC0013B9284600F03EFA2C4B9C4220D16C6886
:1022DC00636EDB0705D4A389980502D4A06D00F0CA
:1022EC00CFFAA38919071DD52369DBB1013EA36879
:1022FC0016F8011F013BA36039BB002B38DA2246CC
:10230C000A21284600F048F8013011D00A2511E0C6
:10231C001B4B9C4201D1AC68DAE71A4B9C4208BFBC
:10232C00EC68D5E72146284600F088F80028DDD077
:10233C004FF0FF35636EDA0705D4A3899B0502D4F1
:10234C00A06D00F09EFA284670BD002B04DAA2693D
:10235C009A4206DC0A2904D023685A1C22601970A0
:10236C00C5E72246284600F017F80130BFD1DFE759
:10237C000A2523685A1C22601D70DBE7102D00080B
:10238C00302D0008F02C0008024B01461868FFF7AE
:10239C008DBF00BF0C000020F8B50E461446054654
:1023AC0018B183690BB900F0CDF9214B9C422BD1AC
:1023BC006C68A369A360A3891A072FD523696BB333
:1023CC0023692068F6B2C01A63693746834204DC7D
:1023DC002146284600F022F930BBA3680130013BAE
:1023EC00A36023685A1C22601E706369834204D068
:1023FC00A389DB0706D50A2E04D12146284600F016
:10240C000DF988B93846F8BD0A4B9C4201D1AC682D
:10241C00CFE7094B9C4208BFEC68CAE72146284627
:10242C0000F00CF80028CBD04FF0FF37EAE700BFE4
:10243C00102D0008302D0008F02C0008324B70B520
:10244C001D6806460C4625B1AB6913B9284600F049
:10245C0079F92E4B9C420FD16C68A389B4F90C20EE
:10246C0019072CD4DD0611D40923336042F0400344
:10247C004FF0FF30A3813EE0254B9C4201D1AC686C
:10248C00EBE7244B9C4208BFEC68E6E7580712D5F3
:10249C00616B41B104F14403994202D0304600F023
:1024AC0057FA00236363A38923F02403A381002339
:1024BC00636023692360A38943F00803A381236924
:1024CC004BB9A38903F42073B3F5007F03D02146E5
:1024DC00304600F0FDF9A089B4F90C2010F001038E
:1024EC000AD00023A36063695B42A361236943B9EB
:1024FC0010F08000BAD170BD810758BF6369A3602A
:10250C00F4E70020F7E700BF0C000020102D0008B6
:10251C00302D0008F02C00088A89F8B50546100704
:10252C000C4657D44B68002B04DC0B6C002B01DCE5
:10253C000020F8BDE66A002EFAD0002312F4805277
:10254C002F682B6032D0606DA3895A0705D563685C
:10255C00C01A636B0BB1236CC01A00230246E66AE7
:10256C002846216AB047431CA38906D129681D2936
:10257C002CD8294ACA40D60728D500226260226985
:10258C00D904226004D5421C01D12B6803B96065C3
:10259C00616B2F600029CBD004F14403994202D027
:1025AC00284600F0D5F900206063C2E7216A0123B8
:1025BC002846B047411CC7D12B68002BC4D01D2B1B
:1025CC0001D0162B01D12F60B2E7A38943F0400351
:1025DC00A381AEE70F69002FAAD0930718BF002381
:1025EC000E6808BF4B69F61B0F608B60002E9FDDD9
:1025FC0033463A462846216AD4F828C0E0470028DA
:10260C0006DCA3894FF0FF3043F04003A38190E731
:10261C000744361AEAE700BF0100402038B50B69C1
:10262C0005460C4613B90025284638BD18B18369F8
:10263C000BB900F087F8144B9C421BD16C68B4F9B1
:10264C000C30002BEFD0626ED00704D4990502D465
:10265C00A06D00F015F928462146FFF75DFF636E6B
:10266C000546DA07E0D4A3899B05DDD4A06D00F004
:10267C0008F9D9E7054B9C4201D1AC68DFE7044B64
:10268C009C4208BFEC68DAE7102D0008302D0008DA
:10269C00F02C0008002310B50446C0E90033C0E953
:1026AC000433836081814366C281836119460822A9
:1026BC005C30FFF7F3FD054B24626362044BA362AD
:1026CC00044BE362044B236310BD00BF352B0008A1
:1026DC00572B00088F2B0008B32B0008014900F082
:1026EC00AFB800BF29260008682270B54D1E5543AF
:1026FC000E4605F1740100F093F9044640B1002137
:10270C00C0E900160C30A06005F16802FFF7C6FDA9
:10271C00204670BD014800F0B3B800BFE9000020AE
:10272C00014800F0AEB800BFE9000020014800F0FD
:10273C00A7B800BFEA000020014800F0A2B800BF13
:10274C00EA00002010B50446FFF7F0FFA3691BB1A7
:10275C00BDE81040FFF7F0BFC4E912332365134BFB
:10276C00134A1B68A262A34208BF0123204608BF7C
:10277C00A36100F01FF86060204600F01BF8A06019
:10278C00204600F017F800220421E0606068FFF793
:10279C0081FF01220921A068FFF77CFF0222122190
:1027AC00E068FFF777FF0123A361D1E7EC2C000869
:1027BC00E9260008F8B50746FFF7ACFF1E4B1E686C
:1027CC00B36913B93046FFF7BDFF4836D6E901347B
:1027DC00013B03D533680BB33668F7E7B4F90C50FB
:1027EC00D5B9164B04F15800E360656600F047F864
:1027FC00FFF796FF08222946C4E90155C4E90455A0
:10280C002560A56104F15C00FFF748FDC4E90D5596
:10281C00C4E912552046F8BD6834D9E7042138467E
:10282C00FFF762FF044630600028D5D1FFF778FF30
:10283C000C233B60EEE700BFEC2C00080100FFFF0F
:10284C002DE9F84306468846002700F14804D4E9F0
:10285C000195B9F1010905D52468002CF7D138464A
:10286C00BDE8F883AB89012B07D9B5F90E300133DC
:10287C0003D029463046C04707436835E9E770471F
:10288C007047704770B50E46B1F90E10144600290A
:10289C001D4696B008DA0022B6F90C302A601A06EA
:1028AC0010D44FF480630EE06A4600F0A3F90028C0
:1028BC00F1DB019A02F47042A2F500535A425A41DC
:1028CC002A60EEE740230020236016B070BD0000A4
:1028DC008B8973B59D0706460C4607D504F1470353
:1028EC00236023610123636102B070BD6A4601ABB2
:1028FC00FFF7C8FF00990546304600F091F848B93B
:10290C00B4F90C309A05EFD423F0030343F002031F
:10291C00A381E3E70D4BB362A389206043F08003EE
:10292C00A381009B20616361019B5BB13046B4F9CC
:10293C000E1000F071F928B1A38923F0030343F0C2
:10294C000103A381A0890543A581CDE7E9260008F1
:10295C0038B50546002940D051F8043C0C1F002B1B
:10296C00B8BFE41800F07AF91C4A136833B96360F5
:10297C0014602846BDE8384000F076B9A34208D967
:10298C00206821188B4201BF19685B680918216007
:10299C00EDE71A465B680BB1A342FAD911685018DF
:1029AC00A0420BD120680144501883421160E0D141
:1029BC0018685B68014411605360DAE702D90C2394
:1029CC002B60D6E7206821188B4201BF19685B6821
:1029DC000918216063605460CBE738BDEC0000201F
:1029EC0070B50E4E0C463168054611B900F08CF8E6
:1029FC0030602146284600F087F8431C0AD0C41CDE
:102A0C0024F00304A04207D0211A284600F07CF8D9
:102A1C00013001D14FF0FF34204670BDF000002092
:102A2C002DE9F041CD1C25F0030508350C2D38BFE0
:102A3C000C25002D074601DBA94205D90C230026E5
:102A4C003B603046BDE8F0812E4E00F007F933684C
:102A5C001C4634BB29463846FFF7C2FF431C0446CC
:102A6C004DD134682646002E40D123683146384675
:102A7C0004EB030800F048F880453AD1216803358F
:102A8C006D1A25F0030508350C2D38BF0C2538467A
:102A9C002946FFF7A5FF01302BD023682B44236078
:102AAC000EE02268521B1ED40B2A16D96119A342C0
:102ABC00256018BF5960636808BF316062514B6074
:102ACC00384604F10B0600F0CFF826F00706231D5C
:102ADC00F21AB6D09B1BA350B3E76268A3420CBF9B
:102AEC0032605A60ECE723466468B2E73446766895
:102AFC00B9E70C2338463B6000F0B6F8A1E7256037
:102B0C00DEE700BFEC00002038B50023054D04467D
:102B1C0008462B60FDF776FD431C02D12B6803B1F0
:102B2C00236038BDF400002010B50C46B1F90E102E
:102B3C0000F0A0F80028ABBF636DA3891B1823F429
:102B4C008053ACBF6365A38110BD2DE9F0411F46D6
:102B5C008B890546DB050C46164605D5022300225B
:102B6C00B1F90E1000F068F8A389324623F48053B3
:102B7C00A38128463B46B4F90E10BDE8F04100F0A5
:102B8C0017B810B50C46B1F90E1000F055F8431CEF
:102B9C00A38915BF606523F4805343F48053A3814C
:102BAC0018BFA38110BDB1F90E1000F013B80000CE
:102BBC0038B50446084611460022054D2A601A46CF
:102BCC00FDF7E4FA431C02D12B6803B1236038BD36
:102BDC00F400002038B50023054D044608462B6050
:102BEC00FDF7DFFC431C02D12B6803B1236038BD19
:102BFC00F400002038B50023064D04460846114663
:102C0C002B60FDF7D9FC431C02D12B6803B1236068
:102C1C0038BD00BFF400002038B50023054D044634
:102C2C0008462B60FDF7D7FC431C02D12B6803B17F
:102C3C00236038BDF400002038B504460846114620
:102C4C000022054D2A601A46FDF7CFFC431C02D129
:102C5C002B6803B1236038BDF40000200148FFF756
:102C6C000FBE00BFE80000200148FFF70ABE00BFFE
:102C7C00E800002038B50446084611460022054DF0
:102C8C002A601A46FDF770FC431C02D12B6803B175
:102C9C00236038BDF4000020F8B500BFF8BC08BCB8
:102CAC009E467047F8B500BFF8BC08BC9E467047FE
:102CBC0048656C6C6F0000000203040506070809E8
:102CCC000A0B0C0D0E0F101000000000000000008D
:102CDC0001020304060708090000000001020304B6
:102CEC0010000020000000000000000000000000A8
:102CFC0000000000000000000000000000000000C8
:102D0C0000000000000000000000000000000000B7
:102D1C0000000000000000000000000000000000A7
:102D2C000000000000000000000000000000000097
:102D3C000000000000000000000000000000000087
:042D4C000000000083
:042D50003101000845
:042D54000D01000865
:102D58000024F40010000000010000001000002012
:102D680000000000102D0008302D0008F02C00088D
:102D7800000000000000000000000000000000004B
:102D8800000000000000000000000000000000003B
:102D9800000000000000000000000000000000002B
:102DA800000000000000000000000000000000001B
:102DB800000000000000000000000000000000000B
:040000050800068960
:00000001FF
